{
  "contractName": "SquareVerifier",
  "abi": [
    {
      "constant": false,
      "inputs": [
        {
          "name": "a",
          "type": "uint256[2]"
        },
        {
          "name": "a_p",
          "type": "uint256[2]"
        },
        {
          "name": "b",
          "type": "uint256[2][2]"
        },
        {
          "name": "b_p",
          "type": "uint256[2]"
        },
        {
          "name": "c",
          "type": "uint256[2]"
        },
        {
          "name": "c_p",
          "type": "uint256[2]"
        },
        {
          "name": "h",
          "type": "uint256[2]"
        },
        {
          "name": "k",
          "type": "uint256[2]"
        },
        {
          "name": "input",
          "type": "uint256[2]"
        }
      ],
      "name": "verifyTx",
      "outputs": [
        {
          "name": "r",
          "type": "bool"
        }
      ],
      "payable": false,
      "stateMutability": "nonpayable",
      "type": "function"
    },
    {
      "anonymous": false,
      "inputs": [
        {
          "indexed": false,
          "name": "s",
          "type": "string"
        }
      ],
      "name": "Verified",
      "type": "event"
    }
  ],
  "bytecode": "0x608060405234801561001057600080fd5b5061192b806100206000396000f3fe608060405234801561001057600080fd5b5060043610610048576000357c010000000000000000000000000000000000000000000000000000000090048063fe01ff621461004d575b600080fd5b6102f1600480360361028081101561006457600080fd5b8101908080604001906002806020026040519081016040528092919082600260200280828437600081840152601f19601f820116905080830192505050505050919291929080604001906002806020026040519081016040528092919082600260200280828437600081840152601f19601f82011690508083019250505050505091929192908060800190600280602002604051908101604052809291906000905b8282101561015a578382604002016002806020026040519081016040528092919082600260200280828437600081840152601f19601f82011690508083019250505050505081526020019060010190610106565b50505050919291929080604001906002806020026040519081016040528092919082600260200280828437600081840152601f19601f820116905080830192505050505050919291929080604001906002806020026040519081016040528092919082600260200280828437600081840152601f19601f820116905080830192505050505050919291929080604001906002806020026040519081016040528092919082600260200280828437600081840152601f19601f820116905080830192505050505050919291929080604001906002806020026040519081016040528092919082600260200280828437600081840152601f19601f820116905080830192505050505050919291929080604001906002806020026040519081016040528092919082600260200280828437600081840152601f19601f820116905080830192505050505050919291929080604001906002806020026040519081016040528092919082600260200280828437600081840152601f19601f820116905080830192505050505050919291929050505061030b565b604051808215151515815260200191505060405180910390f35b60006103156116ea565b60408051908101604052808c600060028110151561032f57fe5b602002015181526020018c600160028110151561034857fe5b6020020151815250816000018190525060408051908101604052808b600060028110151561037257fe5b602002015181526020018b600160028110151561038b57fe5b60200201518152508160200181905250604080519081016040528060408051908101604052808c60006002811015156103c057fe5b602002015160006002811015156103d357fe5b602002015181526020018c60006002811015156103ec57fe5b602002015160016002811015156103ff57fe5b6020020151815250815260200160408051908101604052808c600160028110151561042657fe5b6020020151600060028110151561043957fe5b602002015181526020018c600160028110151561045257fe5b6020020151600160028110151561046557fe5b60200201518152508152508160400181905250604080519081016040528089600060028110151561049257fe5b602002015181526020018960016002811015156104ab57fe5b6020020151815250816060018190525060408051908101604052808860006002811015156104d557fe5b602002015181526020018860016002811015156104ee57fe5b60200201518152508160800181905250604080519081016040528087600060028110151561051857fe5b6020020151815260200187600160028110151561053157fe5b60200201518152508160a00181905250604080519081016040528086600060028110151561055b57fe5b6020020151815260200186600160028110151561057457fe5b60200201518152508160e00181905250604080519081016040528085600060028110151561059e57fe5b602002015181526020018560016002811015156105b757fe5b60200201518152508160c00181905250606060026040519080825280602002602001820160405280156105f95781602001602082028038833980820191505090505b50905060008090505b600281101561064757848160028110151561061957fe5b6020020151828281518110151561062c57fe5b90602001906020020181815250508080600101915050610602565b50600061065482846106c4565b14156106b0577f3f3cfdb26fb5f9f1786ab4f1a1f9cd4c0b5e726cbdfc26e495261731aad44e396040518080602001828103825260228152602001806118de6022913960400191505060405180910390a16001925050506106b7565b6000925050505b9998505050505050505050565b60006106ce611760565b6106d6610904565b90508060e001515160018551011415156106ef57600080fd5b6106f76117d0565b6040805190810160405280600081526020016000815250905060008090505b855181101561077657610767826107628560e001516001850181518110151561073b57fe5b90602001906020020151898581518110151561075357fe5b90602001906020020151610f44565b610fe0565b91508080600101915050610716565b5061079d818360e00151600081518110151561078e57fe5b90602001906020020151610fe0565b90506107c6846000015183600001516107b9876020015161109d565b6107c1611139565b611203565b15156107d7576001925050506108fe565b6107fe826020015185604001516107f1876060015161109d565b6107f9611139565b611203565b151561080f576002925050506108fe565b610836846080015183604001516108298760a0015161109d565b610831611139565b611203565b1515610847576003925050506108fe565b6108938460c0015183606001516108776108728561086d8a600001518b60800151610fe0565b610fe0565b61109d565b8560a00151610889876080015161109d565b896040015161130f565b15156108a4576004925050506108fe565b6108e66108b5828660000151610fe0565b85604001516108c78760e0015161109d565b8560c001516108d9896080015161109d565b6108e1611139565b61130f565b15156108f7576005925050506108fe565b6000925050505b92915050565b61090c611760565b604080519081016040528060408051908101604052807f0f8340fe745ac80055be18e6e71cb292db24673e6703da9522664de943b4072081526020017f0a9783ef901b3c4dad74ad4c842fcd4e88ceea089a74755bee4320b256f56d60815250815260200160408051908101604052807f12ee4d0492507ab61a3c5b30432e02bbcc8c65ecfa3332a607d43df2f4e230d681526020017f0870eed572e85a01094ab850a5d0ba8369dde3566bb4ae30a3615ac9268da0ca815250815250816000018190525060408051908101604052807f2e4e9a5931a642dcd34f4651b84a02a29a4e839bff0ef8ef767fe5f1bb61241681526020017f1f27c903ef2cef2d9afaf3b49a8fb632051d070cab246b79dd24e61c52b744838152508160200181905250604080519081016040528060408051908101604052807f099d749e2a00ed53eec078d82acf24d34baa7a4222c43894d1fe93b83a51804581526020017f1ddfd9fb6b7bdbd21896403a956b16369e12e23b305952276991b92d3df4a001815250815260200160408051908101604052807f2e41ee740e8bf30c9cc8f7ef9cb431e318e6c098220095d3d9c017725382a7ac81526020017f16b35c80999d9bf30ff0d4e9d711a221c0d1ba6a92fb2190690601540d2353438152508152508160400181905250604080519081016040528060408051908101604052807f242de4e13f234387e2b1d3fe8ac3dd60b7bad4231bf4361135b2263d0f73acbe81526020017f2a4001057ce808147f440b71e80e0a7b2d1070709c8a0bd2a770c0a662bf6601815250815260200160408051908101604052807f2ba2a011b73b9549d1c6934b6ed0b7a3f8cd205b19ff66231120c4a2d4311bb281526020017f113fb9a34403438edb74f59b1bbd23dae8263cf36d4e719ed7a45807d34fce6a815250815250816060018190525060408051908101604052807f02c860f3a68917636da9274252ca072af18913c545a198f38d1c474ed15bec7f81526020017f07cef0f15e43bb671db9d4f0bb2339e4a266c765255b939092b1529d63341b9c8152508160800181905250604080519081016040528060408051908101604052807f04489485cca4a9bbbe1d2fca061a25b88d3852d1e15d0a9752150febf6b407cc81526020017f023476bf078a5e5c3899b9b3e716a6d9cf7cca10193b33cd1a2e7d2a6a030bad815250815260200160408051908101604052807f15852311c4458c779c6b1995b3412aa59b82a6f3729a9fd683261e24ac33147c81526020017f2c55b1dae10547ada8f469a94d3c048e2f476befcb229ddbfdaf6e58be2baee78152508152508160a00181905250604080519081016040528060408051908101604052807f116306723b81ca48565e4551e2c6f3e2f656f9f5c2bafaed2a16525d475c461081526020017e5345f17602353389e09a7b1e7153acd4590e32b344c268aebbb907eef71e88815250815260200160408051908101604052807f1d175e08b1dc1da5ffe076c3eb01308a92b65251b2cb99ef5bfd548fd07e220881526020017f1e5397d789aac491f2747dc39a82459863299afc01112a9c39f9a18a40143cc88152508152508160c001819052506003604051908082528060200260200182016040528015610dd957816020015b610dc66117ea565b815260200190600190039081610dbe5790505b508160e0018190525060408051908101604052807f1e46202a360b7729c99a3bb143223dd21006f790b34939754750020c3d4edcc381526020017f191be2bf61de68f86449b33d8fdf99ad02283ef8b82fe785f1668010ef41a3888152508160e001516000815181101515610e4a57fe5b9060200190602002018190525060408051908101604052807f1f77bfad97689edd7f44fbb5fd10c6b1fc16beab2e0212c10d51a9844dd4e0eb81526020017f1b57439f13f8d8d2fc37793a5ccd88dba5a478d7ec5da21d91f72b1799e5bef08152508160e001516001815181101515610ebf57fe5b9060200190602002018190525060408051908101604052807f022788f7279a914d753ec2fa2a4d091c1c1909a009a345df64cdbe0289044a9c81526020017f2874aff3f1486b6d0383b639d5efe9442dd6da92d9c2c569e29a63ba269b8d638152508160e001516002815181101515610f3457fe5b9060200190602002018190525090565b610f4c6117d0565b610f54611804565b8360000151816000600381101515610f6857fe5b6020020181815250508360200151816001600381101515610f8557fe5b60200201818152505082816002600381101515610f9e57fe5b6020020181815250506000606083608084600060076107d05a03f190508060008114610fc957610fcb565bfe5b50801515610fd857600080fd5b505092915050565b610fe86117d0565b610ff0611827565b836000015181600060048110151561100457fe5b602002018181525050836020015181600160048110151561102157fe5b602002018181525050826000015181600260048110151561103e57fe5b602002018181525050826020015181600360048110151561105b57fe5b602002018181525050600060608360c084600060066107d05a03f19050806000811461108657611088565bfe5b5080151561109557600080fd5b505092915050565b6110a56117d0565b60007f30644e72e131a029b85045b68181585d97816a916871ca8d3c208c16d87cfd479050600083600001511480156110e2575060008360200151145b15611106576040805190810160405280600081526020016000815250915050611134565b60408051908101604052808460000151815260200182856020015181151561112a57fe5b0683038152509150505b919050565b61114161184a565b604080519081016040528060408051908101604052807f198e9393920d483a7260bfb731fb5d25f1aa493335a9e71297e485b7aef312c281526020017f1800deef121f1e76426a00665e5c4479674322d4f75edadd46debd5cd992f6ed815250815260200160408051908101604052807f090689d0585ff075ec9e99ad690c3395bc4b313370b38ef355acdadcd122975b81526020017f12c85ea5db8c6deb4aab71808dcb408fe3d1e7690c43d37b4ce6cc0166fa7daa815250815250905090565b60006060600260405190808252806020026020018201604052801561124257816020015b61122f6117ea565b8152602001906001900390816112275790505b5090506060600260405190808252806020026020018201604052801561128257816020015b61126f611871565b8152602001906001900390816112675790505b5090508682600081518110151561129557fe5b90602001906020020181905250848260018151811015156112b257fe5b90602001906020020181905250858160008151811015156112cf57fe5b90602001906020020181905250838160018151811015156112ec57fe5b906020019060200201819052506113038282611457565b92505050949350505050565b60006060600360405190808252806020026020018201604052801561134e57816020015b61133b6117ea565b8152602001906001900390816113335790505b5090506060600360405190808252806020026020018201604052801561138e57816020015b61137b611871565b8152602001906001900390816113735790505b509050888260008151811015156113a157fe5b90602001906020020181905250868260018151811015156113be57fe5b90602001906020020181905250848260028151811015156113db57fe5b90602001906020020181905250878160008151811015156113f857fe5b906020019060200201819052508581600181518110151561141557fe5b906020019060200201819052508381600281518110151561143257fe5b906020019060200201819052506114498282611457565b925050509695505050505050565b60008151835114151561146957600080fd5b60008351905060006006820290506060816040519080825280602002602001820160405280156114a85781602001602082028038833980820191505090505b50905060008090505b838110156116865786818151811015156114c757fe5b906020019060200201516000015182600060068402018151811015156114e957fe5b9060200190602002018181525050868181518110151561150557fe5b9060200190602002015160200151826001600684020181518110151561152757fe5b9060200190602002018181525050858181518110151561154357fe5b9060200190602002015160000151600060028110151561155f57fe5b6020020151826002600684020181518110151561157857fe5b9060200190602002018181525050858181518110151561159457fe5b906020019060200201516000015160016002811015156115b057fe5b602002015182600360068402018151811015156115c957fe5b906020019060200201818152505085818151811015156115e557fe5b9060200190602002015160200151600060028110151561160157fe5b6020020151826004600684020181518110151561161a57fe5b9060200190602002018181525050858181518110151561163657fe5b9060200190602002015160200151600160028110151561165257fe5b6020020151826005600684020181518110151561166b57fe5b906020019060200201818152505080806001019150506114b1565b5061168f611898565b60006020826020860260208601600060086107d05a03f1905080600081146116b6576116b8565bfe5b508015156116c557600080fd5b60008260006001811015156116d657fe5b602002015114159550505050505092915050565b610240604051908101604052806116ff6117ea565b815260200161170c6117ea565b8152602001611719611871565b81526020016117266117ea565b81526020016117336117ea565b81526020016117406117ea565b815260200161174d6117ea565b815260200161175a6117ea565b81525090565b61032060405190810160405280611775611871565b81526020016117826117ea565b815260200161178f611871565b815260200161179c611871565b81526020016117a96117ea565b81526020016117b6611871565b81526020016117c3611871565b8152602001606081525090565b604080519081016040528060008152602001600081525090565b604080519081016040528060008152602001600081525090565b606060405190810160405280600390602082028038833980820191505090505090565b608060405190810160405280600490602082028038833980820191505090505090565b60806040519081016040528061185e6118bb565b815260200161186b6118bb565b81525090565b6080604051908101604052806118856118bb565b81526020016118926118bb565b81525090565b602060405190810160405280600190602082028038833980820191505090505090565b604080519081016040528060029060208202803883398082019150509050509056fe5472616e73616374696f6e207375636365737366756c6c792076657269666965642ea165627a7a72305820dd25196972f724b9bec80e61e8706d7e1fa1d4995744354360ef623c923efe9f0029",
  "source": "pragma solidity >=0.4.21 <0.6.0;\n\nimport './ERC721Mintable.sol';\nimport './verifier.sol';\n\n// TODO define a contract call to the zokrates generated solidity contract <Verifier> or <renamedVerifier>\ncontract SquareVerifier is Verifier {\n\n}\n\n// TODO define another contract named SolnSquareVerifier that inherits from your ERC721Mintable class\ncontract SolnSquareVerifier is CustomERC721Token {\n    using SafeMath for uint256;\n    using Address for address;\n\n    SquareVerifier squareverifier;\n\n    constructor (address verifier) public {\n        squareverifier = SquareVerifier(verifier);\n    }\n\n// TODO define a solutions struct that can hold an index & an address\n    \n    struct Solutions {\n        uint[2] a;\n        uint[2] a_p;\n        uint[2][2] b;\n        uint[2] b_p;\n        uint[2] c;\n        uint[2] c_p;\n        uint[2] h;\n        uint[2] k;\n        uint[2] input;\n        address solution_owner;\n        bool used;\n    }\n\n// TODO define an array of the above struct\n    Solutions[] solutions; \n\n// TODO define a mapping to store unique solutions submitted\n    mapping (bytes32 => Solutions) unisolutions;\n\n// TODO Create an event to emit when a solution is added\n    event Addsolution();\n\n// TODO Create a function to add the solutions to the array and emit the event\n    function addsolutions(\n        uint[2] memory a,\n        uint[2] memory a_p,\n        uint[2][2] memory b,\n        uint[2] memory b_p,\n        uint[2] memory c,\n        uint[2] memory c_p,\n        uint[2] memory h,\n        uint[2] memory k,\n        uint[2] memory input) public {\n        bytes32 index_hash = keccak256(abi.encodePacked(a, a_p, b, b_p, c, c_p, h, k, input));\n        require(unisolutions[index_hash].solution_owner == address(0), \"the solution has been added\");\n        require(!unisolutions[index_hash].used, \"the solution has been used\");\n        unisolutions[index_hash] = Solutions(a, a_p, b, b_p, c, c_p, h, k, input, msg.sender, false);\n        emit Addsolution();\n    }\n\n// TODO Create a function to mint new NFT only after the solution has been verified\n//  - make sure the solution is unique (has not been used before)\n//  - make sure you handle metadata as well as tokenSuplly\n    function mintNewUniqueToken(\n        uint[2] memory a,\n        uint[2] memory a_p,\n        uint[2][2] memory b,\n        uint[2] memory b_p,\n        uint[2] memory c,\n        uint[2] memory c_p,\n        uint[2] memory h,\n        uint[2] memory k,\n        uint[2] memory input,\n        address to, \n        uint256 tokenId) public {\n        bytes32 index_hash = keccak256(abi.encodePacked(a, a_p, b, b_p, c, c_p, h, k, input));\n        require(unisolutions[index_hash].solution_owner != address(0), \"the solution has not been added yet\");\n        require(!unisolutions[index_hash].used, 'slolution is used');\n        require(squareverifier.verifyTx(a, a_p, b, b_p, c, c_p, h, k, input), 'verifyTx failed');\n        mint(to, tokenId);\n        unisolutions[index_hash].used = true;\n    }\n}\n",
  "sourcePath": "/Users/arnoldleung/udacityBlockchain/blockchain-capstone/eth-contracts/contracts/SolnSquareVerifier.sol",
  "compiler": {
    "name": "solc",
    "version": "0.5.2+commit.1df8f40c.Emscripten.clang"
  },
  "schemaVersion": "3.0.9",
  "updatedAt": "2019-05-05T08:00:11.698Z",
  "devdoc": {
    "methods": {}
  },
  "userdoc": {
    "methods": {}
  }
}